:020000040800F2
:10000000D804002001010008090100080B010008C4
:100010000D0100080F010008110100080000000098
:1000200000000000000000000000000013010008B4
:100030001501000800000000170100081901000860
:100040001B0100081B0100081B0100081B01000820
:100050001B0100081B0100081B0100081B01000810
:100060001B0100081B0100081B0100081B01000800
:100070001B0100081B0100081B0100081B010008F0
:100080001B0100081B0100081B0100081B010008E0
:100090001B0100081B0100081B0100081B010008D0
:1000A0001B0100081B0100081B0100081B010008C0
:1000B0001B0100081B0100081B0100081B010008B0
:1000C0001B0100081B0100081B0100081B010008A0
:1000D0001B010008871900081B0100081B0100080C
:1000E0001B0100081B0100081B010008DFF80CD0F1
:1000F00001F08EFE0048004753010008D80400209C
:100100000648804706480047FEE7FEE7FEE7FEE7B1
:10011000FEE7FEE7FEE7FEE7FEE7FEE7E91400087C
:10012000ED00000808B500F06DFC09200823052249
:1001300004210090422001F069FA042001F0B2FA93
:10014000042000F0A5F84FF4E131022001F0ECFAB0
:1001500008BDFFF7E7FF01212F4800F0F6F92FA0B7
:1001600001F088FE57E0344800683449884202D1E3
:10017000042001F039FA304801680068401C2E4A1A
:1001800010602F48814246D30020114608600420A9
:1001900000F0B7F8824601F03EFD06460022294BEA
:1001A00001F0CAFC04464FF06632274B01F052FCC6
:1001B000804601F051FD254908604FF081412348F8
:1001C000006801F011FC0446214901F00DFC1F49B3
:1001D000086020491D48006801F05AFD02D81D48FA
:1001E0001A4908601C491948006801F05BFD02D8F3
:1001F000194816490860042001F0FFF9012106485A
:1002000000F0A3F91148006801F012FD84B2214604
:1002100012A001F02FFEA6E7000C01400D0ABFC995
:10022000C8BCC6F8CCE5B4ABB8D0C6F7B2C9BCAF51
:10023000CAB5D1E90D0A00000400002020A1070082
:1002400040420F000000B04066660A4000000020F7
:100250000000C8420000204100007A44BFC9C8BC69
:10026000C6F8CCE5C5A8B6C8A3BA25642070706DE1
:100270000D0A000010B504460120A04081B22B48B1
:1002800000F049F9012800D110BD0020FCE77047BB
:1002900010B586B00446264800F090FE002001907C
:1002A00004908DF809004FF4602003908DF81440FD
:1002B00000208DF8080001A91D4800F0A6FE0623C5
:1002C000012221461A4800F038FF0121184800F0A9
:1002D000C8FE174800F0E7FE00BF154800F0E8FE32
:1002E0000028FAD1124800F0EDFE00BF104800F0DF
:1002F000EEFE0028FAD101210D4800F0F2FE06B012
:1003000010BD70B5054600240121094800F0E9FE42
:1003100000BF0221064801F055F80028F9D0044832
:1003200000F072FF0446204670BD0000000C014042
:100330000024014010B50446CA48844208D1012176
:10034000042000F027FB0021042000F023FB46E0FE
:10035000C548844208D10121082000F01BFB002180
:10036000082000F017FB3AE0C048844208D1012180
:10037000102000F00FFB0021102000F00BFB2EE0FE
:10038000BB48844208D10121202000F003FB00215A
:10039000202000F0FFFA22E0B648844208D1012173
:1003A000402000F0F7FA0021402000F0F3FA16E0B8
:1003B000B148844208D10121802000F0EBFA0021ED
:1003C000802000F0E7FA0AE0AC48844207D101211E
:1003D000801500F0DFFA0021A01500F0DBFA10BD57
:1003E00010B50121084600F0D5FA0021012000F0E7
:1003F000D1FA10BD2DE9F04102460025002600206B
:1004000000230024002791F803C00CF00F0591F899
:1004100003C01CF0100F03D091F802C04CEA050590
:1004200091F800C0BCF1000F31D0146800202BE01F
:100430004FF0010C0CFA00F3B1F800C00CEA03060F
:100440009E4220D183004FF00F0C0CFA03F7BC43FF
:1004500005FA03FC4CEA040491F803C0BCF1280F30
:1004600006D14FF0010C0CFA00FCC2F814C00AE0EF
:1004700091F803C0BCF1480F05D14FF0010C0CFA04
:1004800000FCC2F810C0401C0828D1D31460B1F899
:1004900000C0BCF1FF0F34DD546800202EE000F1F5
:1004A000080C4FF0010808FA0CF3B1F800C00CEA90
:1004B00003069E4221D183004FF00F0C0CFA03F784
:1004C000BC4305FA03FC4CEA040491F803C0BCF1F8
:1004D000280F05D100F1080C08FA0CF8C2F81480B6
:1004E00091F803C0BCF1480F07D100F1080C4FF0A0
:1004F000010808FA0CF8C2F81080401C0828CED376
:100500005460BDE8F0814FF6FF71018002218170D7
:100510000421C17070470246002093680B4201D04D
:10052000012000E0002070470146886880B27047D3
:1005300002460020D3680B4201D0012000E00020D9
:1005400070470146C86880B27047016170474161D9
:1005500070470AB1016100E041617047C1607047B6
:100560004FF480320A4382618161826182698269CB
:10057000704702460020424B18684FF680731840BF
:1005800040EA021008433E4B186070473D49C8617D
:100590007047F0B50A46002300240021002500F032
:1005A0000046B6F1004F02D1354EF16901E0344EFC
:1005B0007168C0F3034583B200F44016B6F5401FDE
:1005C00008D121F070612E4E766826F070662C4FAF
:1005D0007E6012E000F48016B6F5801F06D1032677
:1005E00006FA05F4A14341F0706106E0460D3601BC
:1005F00003FA06F6B14341F0706122B1460D3601AF
:1006000003FA06F6314300F00046B6F1004F02D17E
:100610001B4EF16101E01A4E7160F0BD30B5002251
:100620008B071C0F0F2303FA04F2154B08338C10B1
:1006300053F824309343124C08348D1044F825307D
:1006400023468C1053F824308C07240F00FA04F44E
:1006500023430B4C08348D1044F8253030BD0A4933
:100660000860704700080140000C01400010014084
:100670000014014000180140001C0140002001400E
:100680000000014000002042DC002042FE480068DB
:1006900040F00100FC49086008464068FB490840FA
:1006A000F949486008460068F9490840F649086079
:1006B0000846006820F4802008600846406820F45E
:1006C000FE0048604FF41F0088607047EE490968DB
:1006D00021F48031EC4A11601146096821F480212F
:1006E0001160B0F5803F03D0B0F5802F0ED106E049
:1006F000E549096841F48031E34A116007E0E249C5
:10070000096841F4A021E04A116000E000BF00BF89
:10071000704710B501460022002300204A11012A2B
:1007200002D1D94C236806E0022A02D1D64C236AB2
:1007300001E0D54C636A01F01F02012494401C4281
:1007400001D0012000E0002010BD38B5002000904D
:100750000024002500BF3120FFF7DBFF054600988D
:10076000401C00900098B0F5A06F01D0002DF2D091
:100770003120FFF7CEFF08B1012400E0002420461D
:1007800038BD01460020C04A106820F0F80040EA59
:10079000C10010607047BF490860704702460020E2
:1007A000B94B586820F47C1042EA01031843B64B59
:1007B00058607047B7490866704701460020B24A42
:1007C000506820F00300084350607047AE4840680E
:1007D00000F00C00704701460020AB4A506820F042
:1007E000F00008435060704701460020A64A506858
:1007F00020F4E06008435060704701460020A24AA0
:10080000506820F4605040EAC1005060704729B140
:100810009D4A527A02439C4B5A7204E09A4A527A99
:100820008243994B5A7270479B4908607047014652
:100830000020954A506820F44040084350607047BB
:100840000021964A1170904A82F82010012802D0A7
:10085000042808D103E00121904A117004E0052129
:100860008E4A117000E000BF00BF70478C490860DD
:1008700070478549096A0143834A11627047884974
:1008800044390860704730B500210022002400235D
:100890007D4D6D6805F00C0121B1042905D00829B2
:1008A00023D105E07F4D056022E07E4D05601FE00D
:1008B000754D6D6805F47012734D6D6805F48034E4
:1008C000022505EB92421CB9774D554305600BE0BC
:1008D0006D4D6D6815F4003F03D0734D55430560B1
:1008E00002E0704D5543056002E06E4D056000BFAB
:1008F00000BF654D6D6805F0F00109096B4D6B5C3B
:100900000568DD404560604D6D6805F4E061090AE9
:10091000664D6B5C4568DD4085605B4D6D6805F438
:100920006051C90A614D6B5C4568DD40C560564D3C
:100930006D6805F44041890B5D4D6B5CC568B5FB86
:10094000F3F5056130BD29B14F4A526902434E4B60
:100950005A6104E04C4A526982434B4B5A617047DA
:1009600029B1494A92690243474B9A6104E0464AD9
:1009700092698243444B9A61704729B1424AD269D5
:100980000243414BDA6104E03F4AD26982433E4B65
:10099000DA61704729B13C4AD26802433A4BDA60C7
:1009A00004E0394AD2688243374BDA60704729B194
:1009B000354A12690243344B1A6104E0324A126923
:1009C0008243314B1A61704735494039086070479E
:1009D0003049C86470472C49C87170472A48406A3A
:1009E00040F0807028494862704701460020264A3E
:1009F00092680A4201D0012000E00020704722499D
:100A00008872704710B5FFF741FE4FF48030FFF752
:100A10005DFEFFF79AFE0446012C27D10020FFF768
:100A2000DAFE0020FFF7E9FEA002FFF7DDFE4FF43B
:100A3000E0112004FFF7B2FE0120FFF7BBFE00BF6C
:100A40003920FFF766FE0028FAD00220FFF7B5FE36
:100A500000BFFFF7BBFE0828FBD10120FFF706FF10
:100A600000BF6120FFF755FE0028FAD00121C8021F
:100A7000FFF776FF01210846FFF772FF01210D48BD
:100A8000FFF787FD012117E0001002400000FFF88A
:100A9000FFFFF6FE00004242D80042422010024012
:100AA0008004424200127A0000093D000800002044
:100AB00018000020000230000820FFF751FF01213C
:100AC0000420FFF74DFF01214802FFF749FF0121F4
:100AD0000220FFF752FF10BD10B50446FB488442C8
:100AE00009D101218803FFF755FF00214FF4804011
:100AF000FFF750FF32E0F648844209D10121480453
:100B0000FFF755FF00214FF40030FFF750FF25E0BD
:100B1000F048844209D101218804FFF748FF0021F1
:100B20004FF48020FFF743FF18E0EB48844209D1DF
:100B30000121C804FFF73BFF00214FF40020FFF71D
:100B400036FF0BE0E548844208D101210805FFF794
:100B50002EFF00214FF48010FFF729FF10BD2DE973
:100B6000F04786B005460E460024A24600BFA146C7
:100B70000027B08900B100BF2F462C8A4CF6FF70C9
:100B80000440F08804432C82AC894EF6F3100440F4
:100B9000B08831890843718908430443AC81AC8A29
:100BA0004FF6FF400440B0890443AC8201A8FFF730
:100BB0006AFEC648874202D1DDF810A001E0DDF8E8
:100BC0000CA0A88910F4004F08D00AEBCA0000EB73
:100BD0000A1031684900B0FBF1F807E00AEBCA00DF
:100BE00000EB0A1031688900B0FBF1F86420B8FB13
:100BF000F0F004012009642101FB1089A88910F498
:100C0000004F08D0322000EBC900B0FBF1F000F03B
:100C10000700044308E0322000EB09106421B0FB18
:100C2000F1F000F00F0004432C8106B0BDE8F0871E
:100C30004FF41651016000218180C18001810C2197
:100C4000418100218181704710B502460020108A41
:100C50004FF2FF0318400B884C8823438C882343B2
:100C6000CC8823431843108210BD002101804180AD
:100C70008180C180704721B1828942F40052828113
:100C800004E082894DF6FF731A4082817047F0B507
:100C900003460024002600250020A1F510676A3FC6
:100CA00000D100BF1846C1F3421401F01F0601270E
:100CB00007FA06F5012C01D10C3004E0022C01D119
:100CC000103000E014301AB107682F43076002E0CB
:100CD0000768AF430760F0BD1AB1838A0B43838274
:100CE00002E0838A8B4383827047028A4FF6F07357
:100CF0001A400282028A0A430282704782894FF2B6
:100D0000FF731A40828182890A438281704721B130
:100D1000828942F00202828104E082894FF6FD73EB
:100D20001A4082817047028A4FF6DF731A400282AE
:100D3000028A0A430282704721B1028A42F4804249
:100D4000028204E0028A4BF6FF731A400282704767
:100D5000C1F308028280704701468888C0F308000A
:100D60007047818941F0010181817047028BD2B2C5
:100D70000283028B42EA012202837047028B02F453
:100D80007F420283028B0A430283704721B1828A29
:100D900042F02002828204E0828A4FF6DF731A401A
:100DA0008282704721B1828A42F01002828204E07E
:100DB000828A4FF6EF731A408282704721B1828A8D
:100DC00042F00802828204E0828A4FF6F7731A40EA
:100DD0008282704721B1828942F40042828103E01D
:100DE0008289C2F30E028281704721B1828A42F465
:100DF0000062828204E0828A4FF2FF731A4082828C
:100E00007047828A4FF6FB731A408282828A0A43B5
:100E10008282704721B1828A42F00202828204E01B
:100E2000828A4FF6FD731A40828270470246002084
:100E3000B1F5007F00D100BF13880B4201D0012023
:100E400000E00020704701F40072B2F5007F00D18D
:100E500000BFCA430280704770B5024600240023D9
:100E600000250020A1F510666A3E00D100BFC1F345
:100E7000421501F01F03012606FA03F3012D02D1EA
:100E80009689334006E0022D02D1168A334001E0F4
:100E9000968A33400C12012606FA04F41688344070
:100EA00013B10CB1012000E0002070BD10B500228C
:100EB0000023A1F510646A3C00D100BF0A1201248E
:100EC0009440A3B2DC43048010BD00000038014010
:100ED0000044004000480040004C004000500040EA
:100EE00031490143314A1160704770B50021002338
:100EF0000F22C4780CB32D4C246804F4E064C4F5CC
:100F0000E064210AC1F10403CA40447804FA03F101
:100F10008478144021430901254C0678A1550478B2
:100F200004F01F050124AC4005786D114FF0E02658
:100F300006EB8505C5F8004109E0047804F01F05BB
:100F40000124AC401B4D0678761145F8264070BD53
:100F5000194A0A400243154B1B1F1A60704739B1EA
:100F6000124A121D12680243104B1B1D1A6006E044
:100F70000E4A121D126882430C4B1B1D1A607047EB
:100F8000042808D14FF0E021096941F004014FF035
:100F9000E022116107E04FF0E021096921F004012E
:100FA0004FF0E022116170470000FA050CED00E0FF
:100FB00000E400E080E100E080FFFF1F10B5044680
:100FC000FA48844208D101214015FFF7E3FC0021D3
:100FD0006015FFF7DFFC17E0F548844208D10121D6
:100FE0000015FFF7D7FC00212015FFF7D3FC0BE01D
:100FF000F048844208D10121C803FFF7CBFC00214F
:101000004FF40040FFF7C6FC10BD30B5024600208B
:1010100000235068E84C20400D790C6844EA052410
:10102000204350609068E54C2040D1E902542C43A5
:101030004D7944EA450420439060D06A20F4700062
:101040000C7C641EE4B2234340EA0350D06230BDFE
:1010500000210160017141718160C1600121017451
:10106000704721B1826842F00102826003E0826829
:1010700022F001028260704721B1826842F48072DE
:10108000826003E0826822F480728260704710B54B
:101090000023CBB21AB144681C43446002E04468A8
:1010A0009C43446010BD816841F008018160704735
:1010B000014600208A6812F0080F01D0012000E0EC
:1010C00000207047816841F004018160704701464B
:1010D00000208A6812F0040F01D0012000E00020F7
:1010E000704721B1826842F4A002826003E0826806
:1010F00022F4A00282607047014600208A6812F440
:10110000800F01D0012000E00020704710B50A4692
:1011100000210023416821F46041531E41EA43311C
:10112000416010BD21B1426842F40062426003E0B8
:10113000426822F4006242607047F0B504460D46F2
:1011400000200021092D11DDE068A5F10A0606EB5B
:101150004607072606FA07F18843A5F10A0606EBBB
:10116000460603FA06F10843E0600CE0206905EB4F
:101170004507072606FA07F1884305EB450603FAFB
:1011800006F108432061072A0FDA606B561E06EB52
:1011900086071F2606FA07F18843561E06EB8606C9
:1011A00005FA06F10843606322E00D2A0FDA206B8E
:1011B000D61F06EB86071F2606FA07F18843D61FBF
:1011C00006EB860605FA06F10843206310E0E06AA4
:1011D000A2F10D0606EB86071F2606FA07F18843E3
:1011E000A2F10D0606EB860605FA06F10843E06259
:1011F000F0BD21B1826842F48012826003E082680F
:1012000022F48012826070470146C86C80B2704739
:1012100066484C300068704721B1426842F48062F1
:10122000426003E0426822F480624260704721B16C
:10123000426842F48052426003E0426822F48052E5
:10124000426070470A460021816821F4E041114361
:101250008160704721B1826842F40042826003E0FD
:10126000826822F400428260704721B1826842F4B1
:101270000212826003E0826822F4021282607047E8
:10128000014600208A6812F4001F01D0012000E00E
:1012900000207047F0B504461546002000220026C5
:1012A000092911DDE068A1F10A0707EB470C0727C0
:1012B00007FA0CF29043A1F10A0707EB470703FA7C
:1012C00007F21043E0600CE0206901EB410C0727B6
:1012D00007FA0CF2904301EB410703FA07F21043BF
:1012E0002061A06BC0F30156EF1C06F1010CA7EBC7
:1012F0000C0707EB870C1F2707FA0CF29043EF1C33
:1013000006F1010CA7EB0C0707EB870701FA07F2C0
:101310001043A063F0BD10B50A4600210023816B85
:1013200021F44011531E41EA0351816310BD08B5F9
:10133000002300930090009B0B440093009B1A60D5
:1013400008BD08B5024600200090009201F1280077
:10135000009B184400900098006880B208BD0A46BF
:1013600000214168164B19401143416070474162AA
:10137000826270470A460021416821F01F01114333
:101380004160704740B109490831096841F40001E2
:10139000064A0832116007E004490831096821F45F
:1013A0000001024A08321160704700000024014029
:1013B00000280140003C0140FFFEF0FFFDF7F1FF77
:1013C000FFFD3FFF0246002013680B4201D00120C1
:1013D00000E000207047CA430260704770B50246C3
:1013E0000020002300240B125568CEB205EA060443
:1013F00015681D4202D00CB1012000E0002070BD34
:1014000000220A12D3430360704700000CB500208D
:10141000019000906B48006840F480306949086092
:1014200000BF6848006800F4003000900198401C3C
:101430000190009818B90198B0F5A06FF1D16148FA
:10144000006810F4003F02D00120009001E000206D
:1014500000900098012842D15B48006840F01000DD
:10146000594908600846006820F0030008600846F3
:10147000006840F0020008605248406851494860E6
:101480000846406848600846406840F4806048600C
:101490000846406820F47C1048600846406840F4E4
:1014A000E81048600846006840F08070086000BF9F
:1014B0004448006810F0007FFAD04248406820F0AD
:1014C0000300404948600846406840F00200486018
:1014D00000BF3C48406800F00C000828F9D10CBD62
:1014E00010B5FFF793FF10BD10B53648006840F007
:1014F00001003449086008464068344908403149D1
:10150000486008460068324908402E49086008468D
:10151000006820F4802008600846406820F4FE003F
:1015200048604FF41F008860FFF7DAFF4FF000605B
:101530002849086010BD10B5002100200022214B71
:101540005B6803F00C0121B1042906D0082928D1D9
:1015500007E0214B214C236027E01F4B1F4C2360E9
:1015600023E0184B5B6803F47010164B5B6803F4C0
:101570008032022303EB904022B9194B4343174CAE
:1015800023600DE00F4B5B6813F4003F04D0144B55
:101590004343124C236003E00F4B43430F4C236043
:1015A00003E00D4B0D4C236000BF00BF054B5B6893
:1015B000C3F303130B4CE15C084B1B68CB40074C97
:1015C000236010BD00100240002002400000FFF820
:1015D000FFFFF6FE08ED00E000127A001C0000207C
:1015E00000093D002000002010B504460120A04065
:1015F00081B23A48FEF7A9FF10BD10B5044601209C
:10160000A04081B23548FEF7A2FF10BD2DE9F84396
:1016100004460D4616461F46DDF82080412C18D1A1
:101620000120A8400121B14008430121B9400843ED
:10163000012101FA08F1084380B2ADF8000003204F
:101640008DF8020010208DF8030069462448FEF74B
:10165000D1FE422C18D10120A8400121B1400843FD
:101660000121B9400843012101FA08F1084380B281
:10167000ADF8000003208DF8020010208DF8030063
:1016800069461648FEF7B6FE0920FFF7B6FF0520AB
:10169000FFF7AAFF0820FFF7A7FF0420FFF7A4FF2A
:1016A000BDE8F88338B504460120A04080B2ADF80B
:1016B000000000208DF8030069460948FEF79AFEF5
:1016C0000120ADF800008DF8020010208DF8030015
:1016D00069460248FEF78EFE38BD0000000C01404E
:1016E0000008014008B54FF4C060FFF7F9FB252062
:1016F0008DF8000000208DF801008DF80200012017
:101700008DF803006846FFF7F0FB27208DF80000F6
:1017100000208DF8010001208DF802008DF80300F3
:101720006846FFF7E2FB08BD30B585B005460C46BC
:10173000012D39D101218003FFF712F96802ADF8BC
:10174000100018208DF8130003208DF8120004A952
:101750009F48FEF74FFEA802ADF8100004208DF858
:10176000130003208DF8120004A99948FEF742FEE9
:1017700000940020ADF80400ADF80600ADF80800B4
:10178000ADF80C000C20ADF80A0069469148FFF74F
:10179000E6F9012240F225518E48FFF778FA01213F
:1017A0008C48FFF768FA78E0022D39D1012148040E
:1017B000FFF7E3F80420ADF8100018208DF81300AF
:1017C00003208DF8120004A98148FEF713FE0820BB
:1017D000ADF8100004208DF8130003208DF81200DE
:1017E00004A97B48FEF706FE00940020ADF8040033
:1017F000ADF80600ADF80800ADF80C000C20ADF80F
:101800000A0069467448FFF7AAF9012240F22551FF
:101810007148FFF73CFA01216F48FFF72CFA3CE0D2
:10182000032D3AD101218804FFF7A7F84FF4806017
:10183000ADF8100018208DF8130003208DF8120069
:1018400004A96648FEF7D6FD4FF40060ADF810001D
:1018500004208DF8130003208DF8120004A95F48BE
:10186000FEF7C8FD00940020ADF80400ADF80600B6
:10187000ADF80800ADF80C000C20ADF80A00694680
:101880005748FFF76CF9012240F225515448FFF701
:10189000FEF901215248FFF7EEF9FFF723FF05B0EB
:1018A00030BD70B504460D46012C12D14021494887
:1018B000FFF7C9FA29464748FFF74AFA00BF402117
:1018C0004448FFF7B3FA0028F9D040214148FFF718
:1018D000BAFA022C12D140213F48FFF7B4FA294648
:1018E0003D48FFF735FA00BF40213B48FFF79EFA1D
:1018F0000028F9D040213848FFF7A5FA032C12D16F
:1019000040213748FFF79FFA29463548FFF720FA6C
:1019100000BF40213248FFF789FA0028F9D0402162
:101920002F48FFF790FA70BD2DE9F04106460C46AE
:101930001746032E0ADC002506E014F8011B30468A
:10194000FFF7AFFF681CC5B2BD42F6DBBDE8F08112
:1019500010B50446234890F85000502803DB0020BF
:10196000204981F850001F4890F8501090F850001E
:10197000401C1C4A82F85000104644542146012065
:10198000FFF78FFF10BD10B540F225511148FFF74A
:1019900063FA01280BD140F225510E48FFF786FA71
:1019A0000C48FFF7D9F9C4B22046FFF7D1FF10BDAC
:1019B00070B504460D46E1B20748FFF7C9F900BF0C
:1019C00080210548FFF732FA0028F9D0204670BD83
:1019D000000801400038014000440040000C014074
:1019E000004800403400002080EA010210B502F0F7
:1019F0000043400026D04A0023D04FEA106101EB9B
:101A00001261C0F35600C2F3560240F4000042F4E3
:101A10000002A0FB0220A1F17F014FEA0040140464
:101A200001D000F1010050EA124001D44000491EEB
:101A3000C2B20C0604EBD010401C4008802A02D031
:101A400003E0002010BD20F00100002900DA002092
:101A5000184310BD2DE9FE4F81EA030404F0004451
:101A600021F0004100944FF0000B23F0004350EAB6
:101A7000010402D052EA030404D10020014603B05D
:101A8000BDE8F08FC3F30A54C1F30A552C44A4F205
:101A9000F3340194A0FB0254C1F3130141F480110B
:101AA000C3F3130343F4801301FB024400FB034E12
:101AB000840A970A44EA815447EA8357A4FB0768DB
:101AC00002958D0A05FB07854FEA932C04FB0C5405
:101AD0002705029D4FEA065847EA1637B5EB080579
:101AE0006EEB070C870E920E47EA811742EA8312CB
:101AF000A7FB0201B6EB0B0164EB00042B0D43EADC
:101B00000C335E1844EB1C50DA465146E7FB0201E9
:101B1000C5F313044FEA0B3343EA14534FEA04327C
:101B2000019C43EA0603A4F10C040294009CCDE955
:101B300000B400F01AF9A2E72DE9F04D81EA0304A0
:101B400004F0004B21F0004514464FF0000A23F04A
:101B5000004150EA050220D054EA01021DD0C5F32D
:101B60000A570246C5F31303C1F31300C1F30A5623
:101B700040F4801543F48013A7EB0608101BD646EB
:101B800008F2FD3873EB050002D308F1010801E00B
:101B900092185B41B8F1000F03DA00200146BDE85E
:101BA000F08D00204FF48011064684460EE0171B8E
:101BB00073EB050705D3121B63EB050306434CEAE1
:101BC000010C49084FEA300092185B4150EA0107C6
:101BD000EDD152EA030012D082EA040083EA050143
:101BE000084303D100224FF0004308E0101BAB4133
:101BF00002D20122002302E06FF0010253101AEB1F
:101C000006004CEB085110EB0A0041EB0B01BDE85C
:101C1000F04D00F09DB80EB540F233410291002125
:101C2000CDE900110A460B4600F09FF803B000BD55
:101C300020F00040C10DC0F3160040F400007F29E1
:101C400001DA00207047962903DCC1F19601C840F3
:101C5000704796398840704701F0004330B421F056
:101C6000004150EA010206D00A0DA2F56072C1F3EC
:101C70001301002A02DC30BC00207047440F44EA04
:101C8000C104C100E01830BC00EBC25000F02AB81B
:101C9000002801DBC0F10040002901DBC1F1004157
:101CA00081427047002801DBC0F10040002901DBC0
:101CB000C1F100418842704730B50B460146002013
:101CC0002022012409E021FA02F59D4205D303FAFE
:101CD00002F5491B04FA02F52844151EA2F101027F
:101CE000F1DC30BD0029A8BF7047401C490008BF87
:101CF00020F00100704710B4B0FA80FC00FA0CF03C
:101D000050EA010404BF10BC704749B1CCF1200473
:101D100021FA04F411FA0CF118BF01212143084300
:101D2000A3EB0C01CB1D0106000A002BBEBF002057
:101D300010BC704700EBC35010440029A4BF10BC76
:101D40007047401C490008BF20F0010010BC7047DC
:101D500010B5002B08DA401C41F1000192185B41DC
:101D60001A4301D120F0010010BD2DE9F04D92463B
:101D70009B4611B1B1FA81F202E0B0FA80F2203252
:101D8000904600F057F804460F4640EA0A0041EA40
:101D90000B0153465A46084303D120463946BDE855
:101DA000F08D114653EA010015D0C8F140025046AB
:101DB00000F04FF805460E4650465946424600F0A0
:101DC00039F8084301D0012000E00020054346EA2D
:101DD000E0762C4337430A984FEA4453A0EB0800BF
:101DE0004FEAD4240A304FF0000244EA47544FEA45
:101DF000D72502D500200146D1E701051019694118
:101E0000DDE9084500196941BDE8F04DA0E7000093
:101E1000064C074D06E0E06840F0010394E8070037
:101E200098471034AC42F6D3FEF764F90820000856
:101E300028200008202A04DB203A00FA02F10020C2
:101E400070479140C2F1200320FA03F319439040F8
:101E50007047202A04DB203A21FA02F00021704763
:101E600021FA02F3D040C2F1200291400843194602
:101E7000704700000FB4054B10B503A9044A02983F
:101E800000F018F810BC5DF814FB0000B119000850
:101E90003000002002E008C8121F08C1002AFAD151
:101EA00070477047002001E001C1121F002AFBD1DA
:101EB000704700002DE9FF4F89B09B46044600257E
:101EC00097E0252833D10027641C4E49B8460122EB
:101ED0002378203B02FA03F0084202D00743641C37
:101EE000F6E720782E2819D114F8010F47F00407DF
:101EF0002A280ED06FF02F022078A0F13001092996
:101F00000CD808EB880102EB410100EB0108641CCE
:101F1000F2E70A98641C50F8048B0A902078002895
:101F20006BD0642808D0692806D0752820D05A467E
:101F30000B9990476D1C5BE00A994FF00A0901C9A3
:101F40000A91002804DAC0F100004FF02D0102E0F0
:101F5000390504D52B218DF82010012103E0F90764
:101F600004D02021F7E78A4608AE0EE00021FAE708
:101F70000A994FF00A0901C90A91F7E74946FFF7A4
:101F80009BFE01F1300106F8011D0028F6D1ADEBF2
:101F9000060000F12009780701D44FF00108C84578
:101FA00002DDA8EB090000E000208046002706E0E3
:101FB00008A85A46C05D0B9990476D1C7F1C574579
:101FC000F6DB04E030205A460B9990476D1CB8F1BF
:101FD0000001A8F10108F5DC05E016F8010B5A46EE
:101FE0000B9990476D1CB9F10001A9F10109F4DCCE
:101FF000641C207800287FF464AF0DB02846BDE84B
:10200000F08F0000092801002820000800000020AF
:1020100034000000941E00085C20000834000020FA
:10202000A4040000A41E000800000000000000003E
:10203000000000000102030401020304060708096E
:102040000204060800A24A0400000000000000008C
:0C2050000102030406070809000000005C
:0400000508000101ED
:00000001FF
