:020000040800F2
:10000000E804002001010008090100080B010008B4
:100010000D0100080F010008110100080000000098
:1000200000000000000000000000000013010008B4
:100030001501000800000000170100081901000860
:100040001B0100081B0100081B0100081B01000820
:100050001B0100081B0100081B0100081B01000810
:100060001B0100081B0100081B0100081B01000800
:100070001B0100081B0100081B0100081B010008F0
:100080001B0100081B0100081B0100081B010008E0
:100090001B0100081B0100081B0100081B010008D0
:1000A0001B0100081B0100081B0100081B010008C0
:1000B0001B0100081B0100081B0100081B010008B0
:1000C0001B0100081B0100081B0100081B010008A0
:1000D0001B010008831600081B0100081B01000813
:1000E0001B0100081B0100081B010008DFF80CD0F1
:1000F00001F00EFB0048004757010008E80400200B
:100100000648804706480047FEE7FEE7FEE7FEE7B1
:10011000FEE7FEE7FEE7FEE7FEE7FEE70111000867
:10012000ED00000808B500F0A5FC482001F068F8D3
:1001300007200623052204210090422001F0E0F868
:1001400000F04EF8052001F027F94FF4E1310220CC
:1001500001F068F908BDFFF7E5FF0221104800F043
:100160002CFA10A001F0E6FA19E0134800681349D0
:10017000884202D1072001F0B1F80F4801680068F9
:10018000401C0D4A10600E48814208D300201146E1
:1001900008600221024800F010FA00F0B5F8E4E728
:1001A000000801400D0ACEC2CAAAB6C8B2C9BCAF87
:1001B000CAB5D1E90D0A00000400002020A1070003
:1001C00040420F0010B504460120A04081B26948AA
:1001D00000F0D9F9012800D110BD0020FCE77047DC
:1001E00010B54FF4806064490880022088701420A4
:1001F000C870604800F036F94FF480615D4800F047
:10020000DCF910BD10B548205B49C870594800F0B2
:1002100029F910BD10B510205749C870554800F095
:1002200021F910BD10B54FF48061524800F0ABF9D0
:1002300010BD10B5FFF7EEFF4FF480614D4800F0A0
:10024000BEF9122001F011F84FF48061494800F026
:10025000B4F91E2000F0EEFF10BD10B50024FFF72A
:10026000D1FF04E0601CC4B2012000F0E3FFFFF7FF
:10027000D9FF08B9642CF5DB642C01DB012010BD2B
:10028000002404E0601CC4B2012000F0D3FFFFF79B
:10029000C9FF08B1642CF5DB642C01DB0120EEE71B
:1002A0000020ECE710B5002404E0601CC4B201207B
:1002B00000F0C0FFFFF7B6FF08B1642CF5DB0024A7
:1002C00004E0601CC4B2012000F0B4FFFFF7AAFFF5
:1002D00008B9642CF5DB282000F0ACFFFFF7A2FF83
:1002E00008B1012010BD0020FCE770B500240025F6
:1002F00006E06006040EFFF7D5FF0443681CC5B294
:10030000082DF6DB204670BD1CB5FFF792FFFFF706
:10031000A4FF08B101201CBD002405E0FFF7E5FFA4
:100320000DF80400601CC4B2052CF7DB9DF800003A
:100330009DF8011008449DF8021008449DF8031030
:1003400008449DF80410884211D19DF800000B4923
:1003500008609DF802000A490860072000F0C7FF06
:10036000074802680548016806A001F0E3F900208B
:10037000D1E70000000C0140100000200C0000201C
:100380000800002068756D693A202575252520250F
:1003900052482C74656D703A20257520A1E60D0A2F
:1003A0000000000010B50446CA48844208D101216B
:1003B000042000F027FB0021042000F023FB46E08E
:1003C000C548844208D10121082000F01BFB002110
:1003D000082000F017FB3AE0C048844208D1012110
:1003E000102000F00FFB0021102000F00BFB2EE08E
:1003F000BB48844208D10121202000F003FB0021EA
:10040000202000F0FFFA22E0B648844208D1012102
:10041000402000F0F7FA0021402000F0F3FA16E047
:10042000B148844208D10121802000F0EBFA00217C
:10043000802000F0E7FA0AE0AC48844207D10121AD
:10044000801500F0DFFA0021A01500F0DBFA10BDE6
:1004500010B50121084600F0D5FA0021012000F076
:10046000D1FA10BD2DE9F0410246002500260020FA
:1004700000230024002791F803C00CF00F0591F829
:1004800003C01CF0100F03D091F802C04CEA050520
:1004900091F800C0BCF1000F31D0146800202BE0AF
:1004A0004FF0010C0CFA00F3B1F800C00CEA03069F
:1004B0009E4220D183004FF00F0C0CFA03F7BC438F
:1004C00005FA03FC4CEA040491F803C0BCF1280FC0
:1004D00006D14FF0010C0CFA00FCC2F814C00AE07F
:1004E00091F803C0BCF1480F05D14FF0010C0CFA94
:1004F00000FCC2F810C0401C0828D1D31460B1F829
:1005000000C0BCF1FF0F34DD546800202EE000F184
:10051000080C4FF0010808FA0CF3B1F800C00CEA1F
:1005200003069E4221D183004FF00F0C0CFA03F713
:10053000BC4305FA03FC4CEA040491F803C0BCF187
:10054000280F05D100F1080C08FA0CF8C2F8148045
:1005500091F803C0BCF1480F07D100F1080C4FF02F
:10056000010808FA0CF8C2F81080401C0828CED305
:100570005460BDE8F0814FF6FF7101800221817067
:100580000421C17070470246002093680B4201D0DD
:10059000012000E0002070470146886880B2704763
:1005A00002460020D3680B4201D0012000E0002069
:1005B00070470146C86880B2704701617047416169
:1005C00070470AB1016100E041617047C160704746
:1005D0004FF480320A43826181618261826982695B
:1005E000704702460020424B18684FF6807318404F
:1005F00040EA021008433E4B186070473D49C8610D
:100600007047F0B50A46002300240021002500F0C1
:100610000046B6F1004F02D1354EF16901E0344E8B
:100620007168C0F3034583B200F44016B6F5401F6D
:1006300008D121F070612E4E766826F070662C4F3E
:100640007E6012E000F48016B6F5801F06D1032606
:1006500006FA05F4A14341F0706106E0460D36014B
:1006600003FA06F6B14341F0706122B1460D36013E
:1006700003FA06F6314300F00046B6F1004F02D10E
:100680001B4EF16101E01A4E7160F0BD30B50022E1
:100690008B071C0F0F2303FA04F2154B08338C1041
:1006A00053F824309343124C08348D1044F825300D
:1006B00023468C1053F824308C07240F00FA04F4DE
:1006C00023430B4C08348D1044F8253030BD0A49C3
:1006D0000860704700080140000C01400010014014
:1006E0000014014000180140001C0140002001409E
:1006F0000000014000002042DC002042FE4800686B
:1007000040F00100FC49086008464068FB49084089
:10071000F949486008460068F9490840F649086008
:100720000846006820F4802008600846406820F4ED
:10073000FE0048604FF41F0088607047EE4909686A
:1007400021F48031EC4A11601146096821F48021BE
:100750001160B0F5803F03D0B0F5802F0ED106E0D8
:10076000E549096841F48031E34A116007E0E24954
:10077000096841F4A021E04A116000E000BF00BF19
:10078000704710B501460022002300204A11012ABB
:1007900002D1D94C236806E0022A02D1D64C236A42
:1007A00001E0D54C636A01F01F02012494401C4211
:1007B00001D0012000E0002010BD38B500200090DD
:1007C0000024002500BF3120FFF7DBFF054600981D
:1007D000401C00900098B0F5A06F01D0002DF2D021
:1007E0003120FFF7CEFF08B1012400E000242046AD
:1007F00038BD01460020C04A106820F0F80040EAE9
:10080000C10010607047BF49086070470246002071
:10081000B94B586820F47C1042EA01031843B64BE8
:1008200058607047B7490866704701460020B24AD1
:10083000506820F00300084350607047AE4840689D
:1008400000F00C00704701460020AB4A506820F0D1
:10085000F00008435060704701460020A64A5068E7
:1008600020F4E06008435060704701460020A24A2F
:10087000506820F4605040EAC1005060704729B1D0
:100880009D4A527A02439C4B5A7204E09A4A527A29
:100890008243994B5A7270479B49086070470146E2
:1008A0000020954A506820F440400843506070474B
:1008B0000021964A1170904A82F82010012802D037
:1008C000042808D103E00121904A117004E00521B9
:1008D0008E4A117000E000BF00BF70478C4908606D
:1008E00070478549096A0143834A11627047884904
:1008F00044390860704730B50021002200240023ED
:100900007D4D6D6805F00C0121B1042905D0082941
:1009100023D105E07F4D056022E07E4D05601FE09C
:10092000754D6D6805F47012734D6D6805F4803473
:10093000022505EB92421CB9774D554305600BE04B
:100940006D4D6D6815F4003F03D0734D5543056040
:1009500002E0704D5543056002E06E4D056000BF3A
:1009600000BF654D6D6805F0F00109096B4D6B5CCA
:100970000568DD404560604D6D6805F4E061090A79
:10098000664D6B5C4568DD4085605B4D6D6805F4C8
:100990006051C90A614D6B5C4568DD40C560564DCC
:1009A0006D6805F44041890B5D4D6B5CC568B5FB16
:1009B000F3F5056130BD29B14F4A526902434E4BF0
:1009C0005A6104E04C4A526982434B4B5A6170476A
:1009D00029B1494A92690243474B9A6104E0464A69
:1009E00092698243444B9A61704729B1424AD26965
:1009F0000243414BDA6104E03F4AD26982433E4BF5
:100A0000DA61704729B13C4AD26802433A4BDA6056
:100A100004E0394AD2688243374BDA60704729B123
:100A2000354A12690243344B1A6104E0324A1269B2
:100A30008243314B1A61704735494039086070472D
:100A40003049C86470472C49C87170472A48406AC9
:100A500040F0807028494862704701460020264ACD
:100A600092680A4201D0012000E00020704722492C
:100A70008872704710B5FFF741FE4FF48030FFF7E2
:100A80005DFEFFF79AFE0446012C27D10020FFF7F8
:100A9000DAFE0020FFF7E9FEA002FFF7DDFE4FF4CB
:100AA000E0112004FFF7B2FE0120FFF7BBFE00BFFC
:100AB0003920FFF766FE0028FAD00220FFF7B5FEC6
:100AC00000BFFFF7BBFE0828FBD10120FFF706FFA0
:100AD00000BF6120FFF755FE0028FAD00121C802AF
:100AE000FFF776FF01210846FFF772FF01210D484D
:100AF000FFF787FD012117E0001002400000FFF81A
:100B0000FFFFF6FE00004242D800424220100240A1
:100B10008004424200127A0000093D0014000020C7
:100B200024000020000230000820FFF751FF0121BF
:100B30000420FFF74DFF01210220FFF756FF10BDF3
:100B400010B50446FB48844209D101218803FFF710
:100B500059FF00214FF48040FFF754FF32E0F64880
:100B6000844209D101214804FFF759FF00214FF4C5
:100B70000030FFF754FF25E0F048844209D10121FD
:100B80008804FFF74CFF00214FF48020FFF747FF58
:100B900018E0EB48844209D10121C804FFF73FFF68
:100BA00000214FF40020FFF73AFF0BE0E5488442B4
:100BB00008D101210805FFF732FF00214FF4801012
:100BC000FFF72DFF10BD2DE9F04786B005460E4614
:100BD0000024A24600BFA1460027B08900B100BF93
:100BE0002F462C8A4CF6FF700440F08804432C8278
:100BF000AC894EF6F3100440B088318908437189FE
:100C000008430443AC81AC8A4FF6FF400440B089EE
:100C10000443AC8201A8FFF76EFEC648874202D1AA
:100C2000DDF810A001E0DDF80CA0A88910F4004F59
:100C300008D00AEBCA0000EB0A1031684900B0FB8B
:100C4000F1F807E00AEBCA0000EB0A1031688900EE
:100C5000B0FBF1F86420B8FBF0F004012009642136
:100C600001FB1089A88910F4004F08D0322000EB56
:100C7000C900B0FBF1F000F00700044308E03220A7
:100C800000EB09106421B0FBF1F000F00F00044309
:100C90002C8106B0BDE8F0874FF4165101600021A9
:100CA0008180C18001810C214181002181817047B7
:100CB00010B502460020108A4FF2FF0318400B883F
:100CC0004C8823438C882343CC88234318431082C9
:100CD00010BD0021018041808180C180704721B119
:100CE000828942F40052828104E082894DF6FF73CA
:100CF0001A4082817047F0B5034600240026002583
:100D00000020A1F510676A3F00D100BF1846C1F36B
:100D1000421401F01F06012707FA06F5012C01D144
:100D20000C3004E0022C01D1103000E014301AB174
:100D300007682F43076002E00768AF430760F0BD14
:100D40001AB1838A0B43838202E0838A8B438382B6
:100D50007047028A4FF6F0731A400282028A0A43F1
:100D60000282704782894FF2FF731A408281828922
:100D70000A438281704721B1828942F00202828156
:100D800004E082894FF6FD731A4082817047028A1F
:100D90004FF6DF731A400282028A0A4302827047CA
:100DA00021B1028A42F48042028204E0028A4BF6B8
:100DB000FF731A4002827047C1F3080282807047B5
:100DC00001468888C0F308007047818941F001011D
:100DD00081817047028BD2B20283028B42EA0122E8
:100DE00002837047028B02F47F420283028B0A4324
:100DF0000283704721B1828A42F02002828204E09D
:100E0000828A4FF6DF731A408282704721B1828A4C
:100E100042F01002828204E0828A4FF6EF731A4099
:100E20008282704721B1828A42F00802828204E005
:100E3000828A4FF6F7731A408282704721B1828905
:100E400042F40042828103E08289C2F30E02828171
:100E5000704721B1828A42F40062828204E0828A71
:100E60004FF2FF731A4082827047828A4FF6FB73FB
:100E70001A408282828A0A438282704721B1828A22
:100E800042F00202828204E0828A4FF6FD731A4029
:100E90008282704702460020B1F5007F00D100BF7A
:100EA00013880B4201D0012000E00020704701F4BC
:100EB0000072B2F5007F00D100BFCA4302807047C4
:100EC00070B502460024002300250020A1F510661D
:100ED0006A3E00D100BFC1F3421501F01F03012695
:100EE00006FA03F3012D02D19689334006E0022D64
:100EF00002D1168A334001E0968A33400C12012653
:100F000006FA04F41688344013B10CB1012000E055
:100F1000002070BD10B500220023A1F510646A3CCA
:100F200000D100BF0A1201249440A3B2DC43048024
:100F300010BD00000038014000440040004800405F
:100F4000004C00400050004031490143314A1160DB
:100F5000704770B5002100230F22C4780CB32D4CCC
:100F6000246804F4E064C4F5E064210AC1F10403D8
:100F7000CA40447804FA03F18478144021430901FB
:100F8000254C0678A155047804F01F050124AC40D7
:100F900005786D114FF0E02606EB8505C5F8004198
:100FA00009E0047804F01F050124AC401B4D0678CD
:100FB000761145F8264070BD194A0A400243154B88
:100FC0001B1F1A60704739B1124A121D1268024382
:100FD000104B1B1D1A6006E00E4A121D1268824358
:100FE0000C4B1B1D1A607047042808D14FF0E021FC
:100FF000096941F004014FF0E022116107E04FF070
:10100000E021096921F004014FF0E02211617047ED
:101010000000FA050CED00E000E400E080E100E0F3
:1010200080FFFF1F0CB50020019000906B48006806
:1010300040F480306949086000BF6848006800F4E7
:10104000003000900198401C0190009818B9019858
:10105000B0F5A06FF1D16148006810F4003F02D0F4
:101060000120009001E0002000900098012842D16A
:101070005B48006840F01000594908600846006865
:1010800020F0030008600846006840F00200086095
:1010900052484068514948600846406848600846E0
:1010A000406840F4806048600846406820F47C1046
:1010B00048600846406840F4E81048600846006808
:1010C00040F08070086000BF4448006810F0007F66
:1010D000FAD04248406820F0030040494860084682
:1010E000406840F00200486000BF3C48406800F0A3
:1010F0000C000828F9D10CBD10B5FFF793FF10BD07
:1011000010B53648006840F00100344908600846D0
:10111000406834490840314948600846006832490F
:1011200008402E4908600846006820F480200860C6
:101130000846406820F4FE0048604FF41F008860B5
:10114000FFF7DAFF4FF000602849086010BD10B5C6
:10115000002100200022214B5B6803F00C0121B12B
:10116000042906D0082928D107E0214B214C23600F
:1011700027E01F4B1F4C236023E0184B5B6803F4F0
:101180007010164B5B6803F48032022303EB90402F
:1011900022B9194B4343174C23600DE00F4B5B689A
:1011A00013F4003F04D0144B4343124C236003E07C
:1011B0000F4B43430F4C236003E00D4B0D4C23605A
:1011C00000BF00BF054B5B68C3F303130B4CE15C2E
:1011D000084B1B68CB40074C236010BD0010024039
:1011E000002002400000FFF8FFFFF6FE08ED00E0DF
:1011F00000127A002800002000093D002C00002089
:1012000010B504466FF00400FFF7EEFEE11704EBA3
:101210005171C1F3CF012F4A11801046008800EBB5
:101220004001C1EBC0104FF6FF7101EAC0002A492E
:10123000088010BD0146274A12884A434FF0E02338
:101240005A6100229A6101221A6100BF4FF0E02228
:10125000106910F0010F02D010F4803FF6D0002288
:101260004FF0E0231A619A61704701461A4A1288CA
:101270004A434FF0E0235A6100229A6101221A6129
:1012800000BF4FF0E022106910F0010F02D010F4FF
:10129000803FF6D000224FF0E0231A619A61704738
:1012A000002107E0002201E0531CDAB25D2AFBDBDB
:1012B0004B1CD9B28142F5DB7047002107E00022C8
:1012C00000E0521C42F210739A42FAD3491C814248
:1012D000F5D370473C0000203E00002010B50446C6
:1012E0000120A04081B23C48FFF767F910BD10B55E
:1012F00004460120A04081B23748FFF760F910BDD5
:101300002DE9F84304460D4616461F46DDF82080B9
:10131000412C18D10120A8400121B14008430121EE
:10132000B9400843012101FA08F1084380B2ADF841
:10133000000003208DF8020010208DF8030069469C
:101340002548FFF78FF8422C18D10120A840012131
:10135000B14008430121B9400843012101FA08F1D5
:10136000084380B2ADF8000003208DF80200102081
:101370008DF8030069461848FFF774F80420FFF75A
:10138000B6FF0520FFF7AAFF0620FFF7A7FF0720FB
:10139000FFF7A4FFBDE8F88338B504460120A0405C
:1013A00080B2ADF8000003208DF8020028208DF8EF
:1013B000030069460848FFF755F80220ADF8000021
:1013C00003208DF8020010208DF8030069460348C1
:1013D000FFF748F838BD0000000C0140000801404C
:1013E00008B54FF4C060FFF7AFFD25208DF8000071
:1013F00000208DF801008DF8020001208DF8030017
:101400006846FFF7A6FD27208DF8000000208DF824
:10141000010001208DF802008DF803006846FFF7F7
:1014200098FD08BD30B585B005460C46012D39D173
:1014300001218003FFF7CCFA6802ADF810001820F4
:101440008DF8130003208DF8120004A99F48FFF7C0
:1014500009F8A802ADF8100004208DF8130003204D
:101460008DF8120004A99948FEF7FCFF00940020B3
:10147000ADF80400ADF80600ADF80800ADF80C00BA
:101480000C20ADF80A0069469148FFF79CFB012249
:1014900040F225518E48FFF72EFC01218C48FFF7C2
:1014A0001EFC78E0022D39D101214804FFF79DFA96
:1014B0000420ADF8100018208DF8130003208DF8DB
:1014C000120004A98148FEF7CDFF0820ADF81000F6
:1014D00004208DF8130003208DF8120004A97B4826
:1014E000FEF7C0FF00940020ADF80400ADF8060040
:1014F000ADF80800ADF80C000C20ADF80A00694604
:101500007448FFF760FB012240F225517148FFF754
:10151000F2FB01216F48FFF7E2FB3CE0032D3AD1DB
:1015200001218804FFF761FA4FF48060ADF81000E4
:1015300018208DF8130003208DF8120004A96648C6
:10154000FEF790FF4FF40060ADF8100004208DF816
:10155000130003208DF8120004A95F48FEF782FFF4
:1015600000940020ADF80400ADF80600ADF80800C6
:10157000ADF80C000C20ADF80A0069465748FFF79B
:1015800022FB012240F225515448FFF7B4FB012110
:101590005248FFF7A4FBFFF723FF05B030BD70B53D
:1015A00004460D46012C12D140214948FFF77FFC2B
:1015B00029464748FFF700FC00BF40214448FFF799
:1015C00069FC0028F9D040214148FFF770FC022C4B
:1015D00012D140213F48FFF76AFC29463D48FFF7FA
:1015E000EBFB00BF40213B48FFF754FC0028F9D03B
:1015F00040213848FFF75BFC032C12D140213748CB
:10160000FFF755FC29463548FFF7D6FB00BF4021C0
:101610003248FFF73FFC0028F9D040212F48FFF760
:1016200046FC70BD2DE9F04106460C461746032ED8
:101630000ADC002506E014F8011B3046FFF7AFFF77
:10164000681CC5B2BD42F6DBBDE8F08110B50446AA
:10165000234890F85000502803DB0020204981F8EF
:1016600050001F4890F8501090F85000401C1C4A41
:1016700082F850001046445421460120FFF78FFFA6
:1016800010BD10B540F225511148FFF719FC012893
:101690000BD140F225510E48FFF73CFC0C48FFF7F8
:1016A0008FFBC4B22046FFF7D1FF10BD70B50446D2
:1016B0000D46E1B20748FFF77FFB00BF80210548D8
:1016C000FFF7E8FB0028F9D0204670BD0008014074
:1016D0000038014000440040000C01400048004038
:1016E0004400002030B50B46014600202022012492
:1016F00009E021FA02F59D4205D303FA02F5491BE0
:1017000004FA02F52844151EA2F10102F1DC30BDF5
:10171000064C074D06E0E06840F0010394E807003E
:1017200098471034AC42F6D3FEF7E4FCC818000822
:10173000E81800080FB4054B10B503A9044A029835
:1017400000F018F810BC5DF814FB0000AD1600089E
:101750004000002002E008C8121F08C1002AFAD188
:1017600070477047002001E001C1121F002AFBD121
:10177000704700002DE9FF4F89B09B4604460025C5
:1017800097E0252833D10027641C4E49B846012232
:101790002378203B02FA03F0084202D00743641C7E
:1017A000F6E720782E2819D114F8010F47F0040726
:1017B0002A280ED06FF02F022078A0F130010929DD
:1017C0000CD808EB880102EB410100EB0108641C16
:1017D000F2E70A98641C50F8048B0A9020780028DD
:1017E0006BD0642808D0692806D0752820D05A46C6
:1017F0000B9990476D1C5BE00A994FF00A0901C9EB
:101800000A91002804DAC0F100004FF02D0102E037
:10181000390504D52B218DF82010012103E0F907AB
:1018200004D02021F7E78A4608AE0EE00021FAE74F
:101830000A994FF00A0901C90A91F7E74946FFF7EB
:1018400051FF01F1300106F8011D0028F6D1ADEB82
:10185000060000F12009780701D44FF00108C845BF
:1018600002DDA8EB090000E000208046002706E02A
:1018700008A85A46C05D0B9990476D1C7F1C5745C0
:10188000F6DB04E030205A460B9990476D1CB8F106
:101890000001A8F10108F5DC05E016F8010B5A4635
:1018A0000B9990476D1CB9F10001A9F10109F4DC15
:1018B000641C207800287FF464AF0DB02846BDE892
:1018C000F08F000009280100E8180008000000203F
:1018D00044000000541700082C19000844000020A0
:1018E000A404000064170008FF00000000000000CE
:1018F00000000000000000000000000000000000E8
:101900000102030401020304060708090204060891
:1019100000A24A04000000000000000001020304CD
:0C1920000607080900000000000000009D
:0400000508000101ED
:00000001FF
